:100000000C9487050C94AF050C94AF050C94AF05C8
:100010000C94AF050C94AF050C94AF050C94AF0590
:100020000C94AF050C94AF050C94030D0C94720D59
:100030000C94AF050C94AF050C94AF050C94AF0570
:100040000C94AF050C94AF050C94AF050C94AF0560
:100050000C94AF050C94AF050C94AF050C94A40F51
:100060000C94AF050C94AF050C94AF050C94AF0540
:100070000C94AF050C94AF050C94AF050C94AF0530
:100080000C94AF050C94AF050C94AF050C94AF0520
:100090000C94AF050C94AF050C94AF050C94AF0510
:1000A0000C94AF050C94AF050C94AF050000000054
:1000B000003E5B4F5B3E3E6B4F6B3E1C3E7C3E1CEE
:1000C000183C7E3C181C577D571C1C5E7F5E1C0034
:1000D000183C1800FFE7C3E7FF0018241800FFE7EB
:1000E000DBE7FF30483A060E2629792926407F05AE
:1000F0000507407F05253F5A3CE73C5A7F3E1C1CC4
:1001000008081C1C3E7F14227F22145F5F005F5F83
:1001100006097F017F006689956A6060606060946F
:10012000A2FFA29408047E040810207E2010080874
:100130002A1C08081C2A08081E101010100C1E0C7F
:100140001E0C30383E3830060E3E0E060000000011
:100150000000005F00000007000700147F147F14F8
:10016000242A7F2A1223130864623649562050003D
:1001700008070300001C2241000041221C002A1C29
:100180007F1C2A08083E0808008070300008080814
:100190000808000060600020100804023E51494534
:1001A0003E00427F400072494949462141494D3352
:1001B0001814127F1027454545393C4A49493141B9
:1001C000211109073649494936464949291E000087
:1001D00014000000403400000008142241141414DC
:1001E0001414004122140802015909063E415D59C8
:1001F0004E7C1211127C7F494949363E41414122D1
:100200007F4141413E7F494949417F090909013EFA
:10021000414151737F0808087F00417F4100204021
:10022000413F017F081422417F404040407F021C33
:10023000027F7F0408107F3E4141413E7F0909094A
:10024000063E4151215E7F09192946264949493216
:1002500003017F01033F4040403F1F2040201F3FDC
:100260004038403F63140814630304780403615961
:10027000494D43007F4141410204081020004141A3
:10028000417F04020102044040404040000307084F
:100290000020545478407F2844443838444444284B
:1002A000384444287F385454541800087E090218F2
:1002B000A4A49C787F0804047800447D400020407A
:1002C000403D007F1028440000417F40007C0478BE
:1002D00004787C080404783844444438FC18242406
:1002E0001818242418FC7C08040408485454542486
:1002F00004043F44243C4040207C1C2040201C3C03
:100300004030403C44281028444C9090907C4464F9
:10031000544C44000836410000007700000041368C
:10032000080002010204023C2623263C1EA1A16112
:10033000123A4040207A3854545559215555794144
:100340002154547841215554784020545579400C1B
:100350001E527212395555555939545454593955FC
:100360005454580000457C410002457D420001453F
:100370007C40F0292429F0F0282528F07C545545AC
:10038000002054547C547C0A097F4932494949323F
:100390003248484832324A4848303A4141217A3A54
:1003A00042402078009DA0A07D39444444393D401E
:1003B00040403D3C24FF2424487E4943662B2FFCCB
:1003C0002F2BFF0929F620C0887E09032054547979
:1003D000410000447D413048484A32384040227A4A
:1003E000007A0A0A727D0D19317D2629292F2826C7
:1003F0002929292630484D402038080808080808CF
:100400000808382F10C8ACBA2F102834FA00007B27
:10041000000008142A142222142A1408950022002D
:1004200095AA005500AAAA55AA55AA000000FF00E7
:10043000101010FF00141414FF001010FF00FF1024
:1004400010F010F0141414FC001414F700FF000056
:10045000FF00FF1414F404FC141417101F10101FD5
:10046000101F1414141F00101010F0000000001FC3
:10047000101010101F10101010F010000000FF10CE
:100480001010101010101010FF10000000FF1400CA
:1004900000FF00FF00001F10170000FC04F41414FC
:1004A0001710171414F404F40000FF00F7141414C8
:1004B00014141414F700F7141414171410101F1048
:1004C0001F141414F4141010F010F000001F101F6B
:1004D0000000001F14000000FC140000F010F010D9
:1004E00010FF10FF141414FF141010101F00000050
:1004F00000F010FFFFFFFFFFF0F0F0F0F0FFFFFF54
:100500000000000000FFFF0F0F0F0F0F38444438AA
:10051000447C2A2A3E147E02020606027E027E02E5
:1005200063554941633844443C04407E201E200604
:10053000027E020299A5E7A5991C2A492A1C4C7241
:1005400001724C304A4D4D303048784830BC625AC8
:10055000463D3E494949007E0101017E2A2A2A2A58
:100560002A44445F444440514A444040444A514034
:100570000000FF0103E080FF000008086B6B0836F5
:1005800012362436060F090F060000181800000066
:100590001010003040FF0101001F01011E00191D55
:1005A0001712003C3C3C3C0000000000F0F89C8E20
:1005B0008783878E9CF8F00000FEFF03030303038C
:1005C000070EFCF80000FEFF0303030303070EFC05
:1005D000F80000FFFF00000000000000FFFF000027
:1005E000FEFF8383838383C7EE7C380000F8FC0E14
:1005F00007030303070EFCF800003F7FE0C0808084
:10060000C0E07F3FFFFF01010101010101FFFF0089
:1006100000FFFF0C0C0C0C1C3E77E3C100007FFFB9
:10062000C0C0C0C0C0E0703F1F00001F3F70E0C0EE
:10063000C0C0E0703F1F00007FFFC1C1C1C1C1E366
:10064000773E1C00001F3F70E0C0C0C0E0703F1F3D
:10065000000000000001FFFF01000000D5F08D1434
:10066000A1C881CFD9F1AF20000C0C7070FCFEFF47
:10067000FF0004F902FC0000000103070700010469
:100680000201000C0C7070FCFEFFFF00885020502F
:100690008800000103070700000000000080400000
:1006A000000000000000000000000000000000004A
:1006B000000000000000000000000000000000003A
:1006C000000000000000000000000000000000002A
:1006D000000000C0E0E0000000000080C0C0C000DA
:1006E0000000C0E0E0E0E0E0E0C0C0C0800000004A
:1006F00000000000000000000000000000000000FA
:1007000000000000000000000000000000000000E9
:1007100000000000000000000000000000000000D9
:10072000000000FCFCFCDEDE8F8F878787878780D8
:100730008000000000C0C0C0E0F0F0F0F0E0C0C0F9
:100740008000000000C0E0F0F0F87878F0F0800061
:10075000000000FFFFFF3C1C1E7EFFFFC78301005F
:1007600000003FFFFFFDFCDDDD9F9F9F8F800000AD
:100770000000000000000000000000000000000079
:100780000000000000000000000000000000000069
:100790000000000000000000000000000000000059
:1007A0000000000001030303030303030303030723
:1007B0003FFFFEF00003FFFFFF8F00000101073F36
:1007C000FFFFF80000071F1F3F3C3C3E1F3F3F302C
:1007D0003818000F1F1F1000000001070F0F0E0038
:1007E00000000000000101030303030303010000F4
:1007F00000000000000000000000000000000000F9
:1008000000000000000000000000000000000000E8
:1008100000000000000000000000000000000000D8
:100820000000003878787070707070707070787830
:100830003C3F3F1F000003030303000000000000D3
:1008400000000000000000000000000000000000A8
:100850000000000000000000000000000000000098
:100860000000000000000000000000000000000088
:100870000000000000000000000000000000000078
:100880000000000000000000000000000000000068
:100890000000000000000000000000000000000058
:1008A0000000000000000000000000000000000048
:1008B000000000000000000000C0603018088C84B8
:1008C0008486820A02CEE8A8A8B08080400000009A
:1008D0000000000000000000000000000000000018
:1008E0000000000000000000000000000000000008
:1008F00000000000000000000000000000000000F8
:1009000000000000000000000000000000000000E7
:1009100000000000000000000000000000000000D7
:100920000000000000000080000000000000000047
:100930000000808080E03010509314386080030CF9
:1009400038E0810102020302000000000100000003
:100950000000000000000000000000000000000097
:100960000000000000000000000000000000000087
:100970000000000000000000000000000000000077
:100980000000000000000000000000000000000067
:100990000000000000000000000000000000000057
:1009A00000000000000000071962C68C8898101033
:1009B000109FB0E0C081820408101112121312249B
:1009C00024242721110A8CF0000000000000000000
:1009D0000000000000000000000000000000000017
:1009E0000000000000000000000000000000000007
:1009F00000000000000000000000000000000000F7
:100A000000000000000000000000000000000000E6
:100A100000000000000000000000000000000000D6
:100A200000000000000000000000000000000101C4
:100A300001000000000001010101010103020202A6
:100A4000020202020101000000000000000000009C
:100A50000000000000000000000000000000000096
:100A60000000000000000000000000000000000086
:100A70000000000000000000000000000000000076
:100A80000000000000000000000000000000000066
:100A9000000000000000000000000000000000084E
:100AA0000B00020202000009040000010202000023
:100AB0000524001001052401010104240206052477
:100AC0000600010705810310004009040100020A25
:100AD00000000007050202400000070583024000F5
:100AE000000403090412010002EF02014041233611
:100AF0008000010102030141726475696E6F204C30
:100B00004C430041726475626F790000211011241A
:100B10001FBECFEFDAE0DEBFCDBF11E0A0E0B1E055
:100B2000ECE0FDE202C005900D92A639B107D9F7BD
:100B300028E0A6E9B1E001C01D92AA31B207E1F7B1
:100B400015E0C7E8D5E004C02197FE010E947E169B
:100B5000C638D107C9F70E943E100C9484160C9435
:100B60000000E6ECF3E0A0E0B8E000800EBC8111EC
:100B7000012C1197A0FDFDCF0192B9F70DB4089596
:100B8000FC018091C503882311F13FB7F89482E0FE
:100B90008093E9002091F200822F90E01816190648
:100BA00014F481E090E0882339F0289844E64093DB
:100BB000C4034091F1004083222339F02091F200D8
:100BC000211103C02BE62093E8003FBF08958FEF6B
:100BD0009FEF08952FB7F89483E08093E9009091F8
:100BE000E800892F807295FF04C09091F20080E4A4
:100BF000891B2FBF08958091BC0381110DC082E035
:100C00008093B80384E08093B9031092BB031092E1
:100C1000BA0381E08093BC0388EB93E00895CF93FF
:100C2000DF931F92CDB7DEB76983DC01ED91FC91B4
:100C30000280F381E02D41E050E0BE016F5F7F4F05
:100C400009950F90DF91CF91089583E08093E9009B
:100C50008091F200882319F08AE38093E8000895D8
:100C60000E94EA0590E00895CF93DF931F92CDB7DD
:100C7000DEB7FC018485958597FD08C02FEF3FEF17
:100C8000358724870F90DF91CF910895CE0101968B
:100C90000E94C005019719F4898190E0F3CF8FEF8E
:100CA0009FEFF0CF0F931F93CF93DF931F92CDB79A
:100CB000DEB78C01FC018485958597FF0BC0CE01C2
:100CC00001960E94C005019771F4898190E0F801B6
:100CD00095878487F801848595850F90DF91CF9162
:100CE0001F910F9108958FEF9FEFF1CFFC01848545
:100CF000958597FD0BC09FB7F89482E08093E9003B
:100D00008091F2009FBF90E0019608959FB7F894FC
:100D100082E08093E9008091F2009FBF90E0089507
:100D20004091B2035091B3032091B0033091B103CD
:100D300042175307B4F49091E8009570E1F3909155
:100D4000E80092FD19C08093F1008091B203909168
:100D5000B30301968F739927892B19F48EEF809333
:100D6000E8008091B2039091B30301969093B3038E
:100D70008093B20381E0089580E00895DF92EF92BE
:100D8000FF920F931F93CF93DF93D82E8A01EB012D
:100D90007B01E40EF51ECE15DF0559F0D7FE12C01B
:100DA000FE0184910E94900621968111F4CF0FEFED
:100DB0001FEFC801DF91CF911F910F91FF90EF902E
:100DC000DF9008958881EECF0F931F93CF93DF9329
:100DD0001F92CDB7DEB782E0898342E450E06FE92D
:100DE0007AE080E80E94BE060E94FB05DC011296B4
:100DF0000D911C910115110589F0D801ED91FC911F
:100E00000280F381E02DBE016F5F7F4FC80109951D
:100E100097FD04C0F80100851185ECCF89810F9002
:100E2000DF91CF911F910F910895615030F0209183
:100E3000F100FC0120830196F8CF289884E6809386
:100E4000C40308953FB7F8948091AC039091AD032B
:100E5000A091AE03B091AF0326B5A89B05C02F3F6C
:100E600019F00196A11DB11D3FBFBA2FA92F982FD0
:100E70008827BC01CD01620F711D811D911D42E0CB
:100E8000660F771F881F991F4A95D1F708958F9293
:100E90009F92AF92BF92CF92DF92EF92FF926B013F
:100EA0007C010E9422074B015C01C114D104E104C2
:100EB000F104B9F00E942207681979098A099B098F
:100EC000683E73408105910580F321E0C21AD10884
:100ED000E108F10888EE880E83E0981EA11CB11C81
:100EE000E4CFFF90EF90DF90CF90BF90AF909F90B6
:100EF0008F9008958F929F92AF92BF92CF92DF9280
:100F0000EF92FF920F931F93CF93DF936C017B01BE
:100F10008A0180911401882309F45CC08091C50383
:100F2000882309F457C08091B70380FF05C08091E2
:100F3000E00082608093E000E801B12C8AEFA82EE7
:100F400093E0892E2AE3922E209711F4BB20D9F149
:100F50000E94EA0581110AC0AA94AA20D9F161E091
:100F600070E080E090E00E944707EECF8C171D06EE
:100F700011F00CF08C2F9FB7F8948092E90020912B
:100F8000E80025FD02C09FBFDFCF282F30E0C21B45
:100F9000D30BF701815020F041914093F100FACF3B
:100FA000E20EF31EBB2021F09092E800B12CEBCFB3
:100FB0008091E80085FDE7CF9092E800BB24B394D0
:100FC000209709F3F3CF5D9884E68093B60310165B
:100FD00011063CF081E090E0F6019383828310E0FB
:100FE00000E0C801DF91CF911F910F91FF90EF902A
:100FF000DF90CF90BF90AF909F908F900895AF9269
:10100000BF92CF92DF92EF92FF920F931F93CF93F5
:10101000DF936C017B018B01040F151FEB015E0157
:10102000AE18BF08C017D10759F06991D601ED91EC
:10103000FC910190F081E02DC6010995892B79F78B
:10104000C501DF91CF911F910F91FF90EF90DF903D
:10105000CF90BF90AF9008952F923F924F925F92A2
:101060006F927F928F929F92AF92BF92CF92DF92B8
:10107000EF92FF920F931F93CF93DF9300D000D096
:101080001F92CDB7DEB75D834C835901EC2D402F05
:1010900050E0DA01A80FB91F109709F43EC09B0178
:1010A0002E0D311D232BC9F12C813D81232BA9F15C
:1010B000362F3770398313E0759567951A95E1F7E8
:1010C000262FA038B10514F000E8081BA1E0FE2D82
:1010D000F77009F4A0E0E694E694E694EA0EDB01EA
:1010E000AE0DB11D19971CF0F8E0EF2EE61ADB01EA
:1010F000B695BA2FAA27B795A7958A0F9B1FF98097
:10110000AF2DFF0CBB0BE33009F435C1F0F4E13037
:1011100009F4EEC0E23009F453C00F900F900F9025
:101120000F900F90DF91CF911F910F91FF90EF9053
:10113000DF90CF90BF90AF909F908F907F906F90F7
:101140005F904F903F902F900895EA3F09F48CC034
:10115000EB3F19F7E22FE61BEE15F8F6FC01EA5318
:10116000FC4F6F01B12CA12CEC81FD81A01608F081
:10117000ACC0EA0DFB1D8490912C0A2E02C0880C95
:10118000991C0A94E2F727FD07C0F6017080F82D3C
:10119000F0957F22F6017082F980FF2051F0273010
:1011A00044F4F601E058FF4F892C809490809820F9
:1011B00090821FEFA11AB10A3FEFC31AD30AD4CF0E
:1011C00066246A94712C098002C0660C771C0A940C
:1011D000E2F760947094572CE22FE61BEE1508F0AE
:1011E0009CCFFC01EA53FC4F6F01B12CA12CEC8188
:1011F000FD81A01650F5EA0DFB1DE491F0E01F0102
:101200000A2E02C0220C331C0A94E2F727FD05C007
:10121000F6019080962092289082F980FF2071F04C
:10122000273064F4460110E8810E911CF4014080DF
:10123000E42DE5214E2E4328F4014082FFEFAF1A42
:10124000BF0A1FEFC11AD10AD2CFE40FF51FFD83E9
:10125000EC8380589F4F2F5FBFCFE40FF51FFD83B6
:10126000EC8380589F4F2F5FE22FE61BEE1508F0AE
:1012700054CFFC01EA53FC4F6F01B12CA12CEC813F
:10128000FD81A01650F7EA0DFB1D8490912C0A2ECB
:1012900002C0880C991C0A94E2F727FD04C0F601ED
:1012A000708078287082F980FF2041F0273034F474
:1012B000F601E058FF4F8080982890821FEFA11A16
:1012C000B10A3FEFC31AD30ADACFE40FF51FFD834B
:1012D000EC8380589F4F2F5F3DCFEC81FD81E40F61
:1012E000F51FFD83EC83A40EB51E80589F4F2F5F22
:1012F000E22FE61BEE1508F010CFFC01EA53FC4F7D
:101300006F01912C812C801640F7F501E80DF91D35
:101310006490712C0A2E02C0660C771C0A94E2F7C6
:1013200060947094EC81FD81E80DF91D4490512C7E
:101330000A2E02C0440C551C0A94E2F727FD08C08F
:10134000F6013080E32DE6213E2E3428F60130826E
:10135000F980FF2049F027303CF4F601E058FF4FB8
:1013600060807620752870821FEF811A910A3FEF06
:10137000C31AD30AC8CFE02FF0E08A539C4FA0E8ED
:10138000B0E06D01CE1ADF0A4E1B5F0B4A01880CDC
:10139000991CE1E0F0E05F01098002C0AA0CBB1CCF
:1013A0000A94E2F7B02E402F5E2DEC81FD81DC0126
:1013B00086019401F980CF93DF93ED01EF96EF96CC
:1013C000229665908590FF2059F06A9C30018A9C96
:1013D000400167302CF4C8809094C920C728C99276
:1013E00066233AF0CC908094C820C628CD920C9405
:1013F000FA0911964A9529F75A9551F04B2D6395A4
:101400001124E20FF11DA00FB11DC00FD11DD9CFC6
:10141000DF91CF91112481CE2D9A0895BC0190E0E7
:1014200080E00C9447078FB18095807F669B886031
:101430001C9B84600895CF93C82F0E94130A982F95
:101440009C2381E09C1380E0CF91089580E00C9470
:10145000B10580389105B8F460347105A0F420E13D
:1014600091E061FD94E060FD990F62FD9295687FC7
:10147000269FD0011124A80FAA53BC4F8C9140FF86
:1014800003C0892B8C93089590958923FBCF2F92CD
:101490003F924F925F926F927F928F929F92AF9204
:1014A000BF92CF92DF92EF92FF920F931F93CF9351
:1014B000DF9300D000D000D01F92CDB7DEB76D30E3
:1014C000D9F03090010140909C0150909D01832DF6
:1014D00090E09F838E836A3051F510929F011092A5
:1014E0009E0123E0880F991F2A95E1F7480E591EA7
:1014F00050929D0140929C0181E090E027960FB6AA
:10150000F894DEBF0FBECDBFDF91CF911F910F9139
:10151000FF90EF90DF90CF90BF90AF909F908F9013
:101520007F906F905F904F903F902F900895A09084
:101530009E01B0909F0195E0699FB0011124FB01CD
:10154000E455FF4F3F016501212CF5E02F1629F1ED
:10155000C3010196F301F491F9833C01420128E0B3
:101560002A83898181708D8310E000E00315D0F417
:10157000F801EC0DFD1DFC83EB83F12CE12CE31451
:1015800070F4B4016E0D7F1D4D818B819C810E9492
:10159000290AFFEFEF1AFF0AF2CF1982DFCF0F5FA0
:1015A0001F4FE4CF2981269529838A8181508A8320
:1015B000EE81FF818E0E9F1E8111D3CF2394CE0E1C
:1015C000DF1EF6E02F12C1CFC501329C800D911DA8
:1015D000112490939F0180939E018ECFDF92EF9212
:1015E000FF920F931F93CF93DF937C01D22E8B0139
:1015F000040F111DEB0177FF02C0D0E0C0E0C8016D
:101600000134110514F080E490E0C817D9073CF4C8
:101610004D2DBE01C7010E94290A2196F0CFDF910E
:10162000CF911F910F91FF90EF90DF9008958FB7AA
:10163000F8944091A8035091A9036091AA03709176
:10164000AB038FBF80919801882321F010929801FD
:1016500080E0089590919901242F291B922F2091C9
:101660000001921740F49F5F9217A0F491E093BF9E
:10167000889513BE089581E0809398014093990165
:101680008091960190919701019690939701809394
:10169000960181E008952F923F924F925F926F9250
:1016A0007F928F929F92AF92BF92CF92DF92EF92F2
:1016B000FF920F931F93CF93DF9300D000D0CDB74D
:1016C000DEB70091A101000F000F000F0D5F8091A8
:1016D000A201880F880F880F8D5F90E09C838B8319
:1016E00010E0BC016D5F7F4F41E0C8010E94290AF4
:1016F0006B817C816350710941E0C8010E94290A15
:1017000041E06B817C81C80103960E94290A41E077
:101710006B817C81C80103970E94290A81E090E0D7
:101720009A838983D12CC12C83E0E82EF12C9AEF87
:10173000292E33243A942EEFA22EBB24BA948FEF95
:10174000C81AD80A89819A8102969A838983A80E39
:10175000B91E3601600E711E41E08B809C808E0C9C
:101760009F1CB401C3010E94290A28014C185D087E
:1017700041E0B401C2010E94290A41E08B809C80B3
:101780008E189F08B401C3010E94290A41E0B401E8
:10179000C2010E94290A8B809C808C0C9D1C41E018
:1017A000B40138016E0C7F1CC3010E94290A41E07C
:1017B000B40128014E185F08C2010E94290A8B80DB
:1017C0009C808C189D0841E0B401C3010E94290A45
:1017D00041E0B401C2010E94290ACE14DF04BCF02A
:1017E0000F900F900F900F90DF91CF911F910F915D
:1017F000FF90EF90DF90CF90BF90AF909F908F9031
:101800007F906F905F904F903F902F9008959FEF43
:10181000A916B90609F493CF81E0E81AF10892E01D
:10182000290E311CA20CB31C8ACFAF92BF92CF926B
:10183000DF92EF92FF920F931F93CF93DF9304EA0F
:1018400011E0F12CE12C809102018E151F0429F189
:1018500024F1F801C280D38083E0CC0CDD1C8A9592
:10186000E1F7C081D18193E0CC0FDD1F9A95E1F7BC
:101870005E01F8E0AF0EB11CCA15DB0541F021E0B6
:1018800048E0B601CE010E94EE0A2196F5CF8FEF17
:10189000E81AF80A0C5F1F4FD6CFDF91CF911F9146
:1018A0000F91FF90EF90DF90CF90BF90AF90089591
:1018B000E6ECF3E091E8915059F4E6E4F7E091E8C2
:1018C000915061F08191DF01119780688C93F8CF7E
:1018D0008191DF01119781608C93EDCF21E040E48D
:1018E00070E060E090E080E00E94EE0A21E040E4D9
:1018F00070E060E08FE790E00C94EE0A089590E0CD
:1019000080E00895FC0101900020E9F73197AF01D4
:10191000481B590BBC0186E198E00C94FF07CF935C
:10192000DF930E94820CEC018EE391E00E94820C16
:101930008C0F9D1FDF91CF9108950C9405168F9207
:101940009F92AF92BF92CF92DF92EF92FF9280E18F
:10195000C82ED12CE12CF12C98E0892E912CA12CB1
:10196000B12C0E94AD15A70196010E941B16609331
:10197000A1010E94AD15A50194010E941B16609360
:10198000A201A0910201B0E02091A10130E0E4EABF
:10199000F1E090E080E070E08A179B076CF44081F2
:1019A00051812417350729F4428153816417750743
:1019B000C1F201963496F0CFFF90EF90DF90CF9078
:1019C000BF90AF909F908F9008951092A6031092B1
:1019D000A50381E08093020183E090E090930401ED
:1019E000809303019093060180930501E4EAF1E0FE
:1019F0001182108213821282349683E0E43AF8074F
:101A0000B9F70C949F0C1F920F920FB60F921124EE
:101A10008F939F938091E1009091E100937F909349
:101A2000E10083FF0FC01092E90091E09093EB007A
:101A30001092EC0092E39093ED001092C50398E0B1
:101A40009093F00082FF22C093E09093E900909180
:101A5000F200992319F09AE39093E8009091B6036D
:101A6000992341F09091B60391509093B603911150
:101A700001C05D9A9091C403992341F09091C403F1
:101A800091509093C403911101C0289A84FF18C00B
:101A90008091E2008E7E81608093E2008091E1007F
:101AA0008F7E8093E1008091B7038E7E806180936A
:101AB000B7039F918F910F900FBE0F901F901895B5
:101AC00080FFF7CF8091E2008E7E80618093E200FC
:101AD0008091E1008E7E8093E1008091B7038E7E3D
:101AE0008160E5CF1F920F920FB60F921124CF9213
:101AF000DF92EF92FF920F931F932F933F934F9399
:101B00005F936F937F938F939F93AF93BF93EF9365
:101B1000FF93CF93DF93CDB7DEB76C97DEBFCDBF1A
:101B20001092E9008091E80083FF25C068E0CE01B3
:101B300045960E94150782EF8093E8008D8987FF04
:101B400039C09091E80090FFFCCF982F907609F073
:101B500034C19E894F89588D2F89F88C911131C0DD
:101B6000803861F58091B5038093F1001092F10007
:101B70008EEF8093E8006C960FB6F894DEBF0FBE30
:101B8000CDBFDF91CF91FF91EF91BF91AF919F9129
:101B90008F917F916F915F914F913F912F911F9105
:101BA0000F91FF90EF90DF90CF900F900FBE0F90AE
:101BB0001F9018959EEF9093E800C7CF1092F10008
:101BC000D5CF913059F48111D3CF4130510581F6F1
:101BD0008091B5038D7F8093B503CACF933049F4CC
:101BE0008111C6CF4130510519F68091B50382604D
:101BF000F2CF953041F48091E80080FFFCCF20685F
:101C00002093E300B5CF963009F0A9C00B8D1C8D51
:101C100022E01092E9001092B3031092B203F21284
:101C20002EC01092B1031092B0030E94E4061F82EE
:101C300099E09983FA8291E09E8390EA98879AEFDF
:101C400099872091B2033091B303275F3F4F3C83C4
:101C50002B838D831092E9001092B3031092B2038C
:101C60001093B1030093B00349E050E0BE016F5FF1
:101C70007F4F80E00E94BE060E94E40679CF109359
:101C8000B1030093B0030E94FB05DC0112960D9195
:101C90001C910115110509F451C1D801ED91FC9178
:101CA0000480F581E02DBE016B5E7F4FC801099570
:101CB000009709F03EC1F80100851185EACFF3E0F5
:101CC000FF120EC08F89882309F440C0823061F46E
:101CD00040E867E083E09BE00E94EE0F811148CF6F
:101CE00081E28093EB0047CF813029F440E86BE03C
:101CF00087EF9AE0F1CF833099F70E94FB05DC0172
:101D00001296ED90FC908E010F5F1F4F6801E11459
:101D1000F10479F0D701ED91FC910680F781E02D77
:101D2000B801C7010995080F111DF701E084F1847E
:101D3000EECFD8011C92F60101900020E9F731970F
:101D4000BF016C197D0940E0C601C6CF61EE7AE0A3
:101D5000FB01449150E080E80E94BE0609CF973015
:101D600009F4BECF983021F481E08093F10000CFD8
:101D7000993009F0FDCE837009F0B2CFEAE1F1E0CD
:101D800081E031E096E32191222371F08093E90014
:101D90003093EB00DF0111972C912093EC0090938E
:101DA000ED008F5F873079F78EE78093EA0010921D
:101DB000EA008F898093C503DBCE8B8D9C8D1092BA
:101DC000E9001092B3031092B2039093B103809391
:101DD000B003898D811192C08E899D89913A49F411
:101DE000813209F07DCF47E050E06DE071E080E0A6
:101DF000B3CF913209F074CF833269F48F89988D13
:101E0000B0E0A0E08093090190930A01A0930B0138
:101E1000B0930C01ADCE803269F48091E80082FF6E
:101E2000FCCF67E08DE091E00E9415078BEF809377
:101E3000E8009ECE823209F09BCE8F8980931401F8
:101E4000EEEFFFE7859194918B3F9C4D51F1E0E0DF
:101E5000F8E080910D0190910E01A0910F01B091D9
:101E60001001803B9440A105B105F1F4809114016B
:101E700080FD1AC0EE3F8AE0F80789F587E797E70B
:101E800091838083809160008093B40388E19BE01C
:101E90000FB6F894A895809360000FBE90936000F1
:101EA00067CEEEEFFAE0D5CF8081918187379747F3
:101EB00009F05ECEA89580916000886180936000F3
:101EC0008091B40380936000EE3F2AE0F20789F02E
:101ED0008091FE0A9091FF0A9183808349CE808190
:101EE00091818737980751F29093FF0A8093FE0AF9
:101EF000C5CF1092FF0A1092FE0A3ACE0E94FB054F
:101F0000DC0112960D911C910115110509F4E8CE22
:101F1000D801ED91FC910190F081E02DBE016B5E46
:101F20007F4FC8010995811123CEF80100851185E5
:101F3000EBCF181619060CF41BCED2CEF1E0FF122F
:101F4000BECE65EE7AE004CF1F920F920FB60F92CD
:101F500011242F933F938F939F93AF93BF938091BF
:101F6000A8039091A903A091AA03B091AB0330916B
:101F7000A70323E0230F2D3758F50196A11DB11DAE
:101F80002093A7038093A8039093A903A093AA0387
:101F9000B093AB038091AC039091AD03A091AE03DD
:101FA000B091AF030196A11DB11D8093AC03909336
:101FB000AD03A093AE03B093AF03BF91AF919F91D8
:101FC0008F913F912F910F900FBE0F901F901895FA
:101FD00026E8230F0296A11DB11DD2CFEF92FF92EA
:101FE0000F931F93CF93DF93F82E192FE62E042F14
:101FF00081E0860F880F0E94900683E00E94900681
:10200000CF2DD12FEC0EFD2EF11CCE15DF05B9F032
:1020100007FF13C0FE0184910E949006182F80E0F4
:102020000E949006812321968111EFCFDF91CF91FD
:102030001F910F91FF90EF9008958881EDCF81E07F
:10204000F5CFE6ECF7E01382128288EE93E0A0E091
:10205000B0E084839583A683B78384E291E0918383
:1020600080838FEF9FEF95878487E6E1F8E0138206
:10207000128286E391E0918380830895CF93DF936A
:1020800000D000D0CDB7DEB7789484B5826084BD2F
:1020900084B5816084BD85B5826085BD85B581606C
:1020A00085BD80916E00816080936E0010928100EA
:1020B00080918100826080938100809181008160A5
:1020C0008093810080918000816080938000809166
:1020D0009100826080939100809191008160809353
:1020E0009100809190008160809390008091C10068
:1020F00084608093C1008091C10082608093C100A0
:102100008091C10081608093C1008091C300816093
:102110008093C3008091C00082608093C000809152
:10212000C20081608093C20080917A0084608093B5
:102130007A0080917A00826080937A0080917A00A0
:10214000816080937A0080917A00806880937A0021
:102150001092C5031092B5031092B7038091D70077
:1021600081608093D70080EA8093D80089B5806130
:1021700089BD89B5826089BD09B400FEFDCF61E0EB
:1021800070E080E090E00E9447078091D8008F7C4B
:1021900080618093D8008091E000807F8093E00090
:1021A0008091E1008E7E8093E1008DE08093E200DB
:1021B000559A209A809164008E7F8093640080916C
:1021C0007A00806480937A0080917A0086FDFCCF4B
:1021D00000917800109179000E942207AB01BC01A8
:1021E000C801B0E0A0E0DC01992788278C019D019F
:1021F000040F151F261F371FC901B8012091640065
:10220000216020936400611571058105910511F02D
:102210000E94FC1581EC80937C0085B1806F85B9AC
:1022200084B1877E84B984B1876E84B95E9A5F98E1
:102230008AB1806D8AB9769A6E9881B3806F81BBBE
:10224000899880B38D7080BB80E58CBD81E08DBDA9
:1022500085E090E00E940E0A5F9A85E090E00E947F
:102260000E0A5E985C98ECE5F6E089E696E024912B
:102270002EBD00000DB407FEFDCF31968E179F07CF
:10228000B1F75C9A81E88093640080916500816079
:10229000809365000E94260A80E80E941B0A88231A
:1022A000A9F05C9885EA8EBD00000DB407FEFDCF55
:1022B0005C9A2E982F982D9880916400806280936C
:1022C000640081E083BF889513BEFCCF84E00E9448
:1022D0001B0A882309F448C02D9884E80E941B0A31
:1022E0008823E1F00E940C0A88EC90E00E940E0A1C
:1022F0002F9882E090E00E9405168F3F29F06FEF43
:1023000082E090E00E940D1684EF91E00E940E0A98
:102310002F9A84E80E941B0A8111FBCF84E10E945E
:102320001B0A8823E1F00E940C0A88EC90E00E94CE
:102330000E0A2E9882E090E00E940516882329F06C
:1023400060E082E090E00E940D1684EF91E00E9430
:102350000E0A2E9A84E10E941B0A8111FBCF88ECA1
:1023600090E00E940E0AB2CF0E940C0A82E090E038
:102370000E949D0C882309F4E2C03E9A3F9A81E0B6
:1023800090E00E949D0C182F1470912E81FF12C0B6
:1023900011112E98E1EF4E2E55245A9408E010E0CA
:1023A00080E40E941B0A882309F4CCC02E9A2F9A3D
:1023B0000E940C0A82E390E00E940E0A0E94130A17
:1023C0008111F8CF80E180930001109290008AE0A3
:1023D000809391000E949F0CB0E12B2E312CA7EE30
:1023E0006A2EA3E07A2E0E94170B882309F49FC05F
:1023F00080919A0180939B010E94130A80939A0115
:1024000080E0E6ECF3E081118FEF0024819381936B
:10241000819381930394D1F710929D0110929C01B6
:1024200010929F0110929E018091A001882339F0A3
:1024300081508093A001811102C010929000809180
:102440000801882309F450C1EDE9F6E00491EEE9B2
:10245000F6E0E490F2E0CF2E30E020E04FE956E0E5
:1024600070E060E090E080E00E942C0820E430E022
:1024700030939F0120939E018CE190E090939D0109
:1024800080939C0181E491E00E94820C40E450E042
:1024900050939F0140939E018AE491E00E94820C38
:1024A00080E390E090939F0180939E0184E390E00D
:1024B00090939D0180939C0182E591E00E94820CA3
:1024C000109107011983112309F401C1E9E6F6E02F
:1024D0000491EAE6F6E0E49030E020E04BE656E0D6
:1024E00062E370E083E790E00E942C080E94260AD5
:1024F00088E00E941B0A81111092080180919B01C3
:1025000082FD15C080919A0182FF11C081E019817E
:10251000182710930701112351F082E08093A00146
:1025200080E480939000709299006092980080E01F
:1025300090E0892B09F457CF0E94000050CF3E98BD
:102540003F981DCF992031F024E04216510411F438
:102550002E9A2F9881E00E94B105920157FE04C087
:10256000222733272419350927703327C20157FC46
:10257000079673E0959587957A95E1F757FE05C024
:102580000197A801421B530B9A01AC015695542F99
:102590004427579547954A535C4FF12CE12C38015D
:1025A000621A730A8E3F6FEF9607B1F1DA01AC56EB
:1025B000BF4F6A0170E060E0F701E455FA4F5F0138
:1025C0008F3F980779F0F501E60FF71FE491F0E0EF
:1025D0001F01022E01C0220C0A94EAF7F60184883A
:1025E0002828248A2115310571F0F501E60FF71F1F
:1025F000E491F0E0062C02C0F595E7950A94E2F725
:10260000FC91EF2BEC936F5F7F4F1196FFEFCF1A8A
:10261000DF0A68357105A1F6019668E5E60EF11C42
:1026200040585F4FE0EBEE16F10409F0BBCF0E947B
:10263000260A8FE090E00E940E0AFFEF4F1A5F0A11
:1026400029E14216510409F0ABCE992011F02F9ADE
:102650002D9880E991E00E940E0A0E940C0A81E008
:1026600090E00E949D0C80FFA5CE8AE090E00E9441
:102670009D0C9FEF980F9E3F08F09CCE22E330E028
:1026800030939F0120939E0128E330E030939D0119
:1026900020939C010BE010E01A830983682F86E1E8
:1026A00098E00E94470A89819A810E949D0C0981C5
:1026B0001A810F5F1F4F1A8309830131110571F7CA
:1026C0000E94260A88EE93E00E940E0A73CEE3E889
:1026D000F6E00491E4E8F6E0E490E2E0CE2E30E0AB
:1026E00020E045E856E0FCCE8091A603811184C12C
:1026F0008091A503811180C180E80E941B0A882374
:1027000009F44EC08091030190910401019709F4EE
:1027100047C010920601109205018091A4038A30EF
:1027200008F4C4C08091A4019091A501E091050135
:10273000F0910601F0930401E0930301682F4091AA
:10274000A6015091A701242FE130F10509F470C0D2
:1027500008F45EC0E230F10509F474C0339709F45F
:1027600080C0A09102018A2F90E0E4EAF1E041E00C
:1027700050E03496481759070CF07CC0B0811281A4
:102780001983062E000C770B71836083022E000CD8
:10279000330B338322834F5F5F4F212F6B2FE9CFA2
:1027A00080E40E941B0A882331F0809103019091FC
:1027B00004010297C9F480E10E941B0A81111BC029
:1027C00080E20E941B0A882309F4A7CF80910301AD
:1027D00090910401039709F4A0CF82E090E09093D8
:1027E00006018093050199CF23E030E03093060184
:1027F0002093050192CF8091030190910401892BD0
:10280000F9F241E050E0509306014093050185CF75
:102810004150510957FD05C05093A7014093A601AF
:10282000A0CFE7E0F0E0F093A701E093A60199CFF5
:102830004F5F5F4F483051057CF31092A701109213
:10284000A6018FCF019797FD05C09093A5018093B6
:10285000A40187CF0FE010E01093A5010093A4011D
:1028600080CF01968031910584F31092A5011092DA
:10287000A40177CF3091A3013323B1F0880F991FC2
:10288000880F991FFC01EC55FE4F062E000C770BAC
:1028900071836083022E000C330B33832283AF5F7E
:1028A000A09302011092A3011092A4038091A403AB
:1028B0008F5F8093A4032091A1018091A401909146
:1028C000A5012817190619F52091A2018091A601EA
:1028D0009091A70128171906D1F48091020187FF72
:1028E00003C081E08093A50381E08093A3010E944F
:1028F0009F0C80910701882351F082E08093A00112
:1029000080E480939000709299006092980054EA5D
:10291000E52E51E0F52E88248394912C80910201BC
:102920008815190409F00CF461C02091A4013091BC
:10293000A5013A832983F7018481958128173907F6
:1029400009F04DC04090A6015090A7018681978163
:102950004816590609F043C0F1E0F093A60383E05E
:10296000440C551C8A95E1F793E0220F331F9A958A
:10297000E1F73C832B8344E6A42EB12C10E000E069
:10298000285F3F4F3A8329830E94170B8823E1F386
:102990000E94580C0E94150C0E944B0B0F5F1F4F9A
:1029A0000A301105B4F0CB80DC8029813A812C15E6
:1029B0003D0551F020E048E0B201C6010E94EE0A58
:1029C0003FEFC31AD30AF1CF0431110514F010E020
:1029D00000E00E94260A41E0A41AB108A9F65FEFC0
:1029E000851A950A64E0E60EF11C98CF0E94580CF7
:1029F0000E94150C0E944B0B8091A603882361F165
:102A00008CE090E090939F0180939E0130929D0115
:102A100020929C0182E0809301018EE591E00E946A
:102A20008F0C81E08093010130929F0120929E01E2
:102A300088E691E00E948F0CE8E2F0E0F0939F01BD
:102A4000E0939E0189E791E00E94820C0E94130AA4
:102A50008C7F11F00E94E50C8091A503882371F111
:102A60000EE010E010939F0100939E0130929D01B3
:102A700020929C0182E08093010182E891E00E9413
:102A80008F0C81E08093010122E130E030939F01BF
:102A900020939E0188E691E00E948F0C40E250E076
:102AA00050939F0140939E018BE891E00E94820C1D
:102AB0000E94130A8C7F11F00E94E50C0E94260AE6
:102AC00036CD8F929F92AF92BF92CF92DF92EF92CC
:102AD000FF92CF93DF93EC01688179818A819B819A
:102AE000611571058105910521F464E279ED8BE5AD
:102AF00097E02DE133EF41E050E00E941B164901C1
:102B00005A019B01AC01A7EAB1E40E943A166B019D
:102B10007C01ACEEB4EFA50194010E944816C60EEC
:102B2000D71EE81EF91EF7FE06C081E0C81AD108BC
:102B3000E10880E8F80AC882D982EA82FB82C701EC
:102B4000B6019F77DF91CF91FF90EF90DF90CF900C
:102B5000BF90AF909F908F9008958F929F92AF9269
:102B6000BF92CF92DF92EF92FF9260911501709128
:102B70001601809117019091180161157105810569
:102B8000910521F464E279ED8BE597E02DE133EFD7
:102B900041E050E00E941B1649015A019B01AC0123
:102BA000A7EAB1E40E943A166B017C01ACEEB4EFE7
:102BB000A50194010E944816C60ED71EE81EF91EF4
:102BC000F7FE06C081E0C81AD108E10880E8F80ADB
:102BD000C0921501D0921601E0921701F0921801EF
:102BE000C701B6019F77FF90EF90DF90CF90BF9025
:102BF000AF909F908F900895609315017093160188
:102C000080931701909318010895F999FECF92BD12
:102C100081BDF89A992780B50895262FF999FECF9E
:102C20001FBA92BD81BD20BD0FB6F894FA9AF99AE9
:102C30000FBE01960895052E97FB1EF400940E9486
:102C4000321657FD07D00E944D1607FC03D04EF4F4
:102C50000C94321650954095309521953F4F4F4F2B
:102C60005F4F089590958095709561957F4F8F4F38
:102C70009F4F08950E946F16A59F900DB49F900DD1
:102C8000A49F800D911D11240895B7FF0C943A164E
:102C90000E943A16821B930B0895A1E21A2EAA1BDA
:102CA000BB1BFD010DC0AA1FBB1FEE1FFF1FA217FC
:102CB000B307E407F50720F0A21BB30BE40BF50BF9
:102CC000661F771F881F991F1A9469F76095709582
:102CD000809590959B01AC01BD01CF010895A29F05
:102CE000B001B39FC001A39F700D811D1124911DE0
:102CF000B29F700D811D1124911D0895EE0FFF1FCD
:0C2D00000590F491E02D0994F894FFCFA9
:102D0C00100101030003000101FFFFFFFF00E100C0
:102D1C0000000000000100000000C18081000000E4
:102D2C00000000000F067A073006250676063406EA
:102D3C00520600000000470AFF077F0C7E0C0D0AAC
:102D4C00006D6164652062790A0042656E6E65747F
:102D5C007400413A73746172742020423A004761E6
:102D6C006D65204F76657200707265737320616EAD
:102D7C007920627574746F6E00746F207265747252
:102D8C007900596F752057696E2100746F20726538
:062D9C0073746172740003
:00000001FF
